:020000041000EA
:1000000000B5324B212058609868022188439860DF
:10001000D860186158612E4B002199600221596106
:100020000121F02299502B49196001219960352056
:1000300000F044F80222904214D00621196600F024
:1000400034F8196E01211966002018661A6600F04E
:100050002CF8196E196E196E052000F02FF8012189
:100060000842F9D1002199601B49196000215960AB
:100070001A491B48016001219960EB211966A021F2
:10008000196600F012F800219960164914480160C1
:100090000121996001BC002800D000471248134993
:1000A000086003C880F30888084703B5996A0420EC
:1000B0000142FBD001200142F8D103BD02B5186610
:1000C0001866FFF7F2FF186E186E02BD00000240BE
:1000D000000000180000070000035F00212200005C
:1000E000F4000018222000A00001001008ED00E03C
:1000F00000000000000000000000000074B24E7A12
:1001000000200420F7010010CB010010CD010010E9
:10011000C9010010C9010010C9010010C901001077
:10012000C9010010C9010010C9010010CF01001061
:10013000C9010010C9010010D1010010D301001045
:10014000C1010010C1010010C1010010C101001067
:10015000C1010010C1010010C1010010C101001057
:10016000C1010010C1010010C1010010C101001047
:10017000C1010010C1010010C1010010C101001037
:10018000C1010010C1010010C1010010C101001027
:10019000C1010010C1010010C1010010C101001017
:1001A000C1010010C1010010C1010010C101001007
:1001B000C1010010C1010010C1010010C1010010F7
:1001C000EFF30580103800BE00BE00BE00BE00BECA
:1001D00000BE00BEF2EB8871506200107862001021
:1001E0003802001090A31AE71E481F49086006C88D
:1001F00081F3088810471D480068002801D019487D
:10020000F3E70DA40ECC002902D000F012F8F9E7B4
:100210001749184A002000E001C19142FCD116495B
:100220008847164988471649884700BEFDE701C937
:1002300001C29A42FBD3704778620010C0000020D0
:1002400048080020006A001000000420000004207C
:10025000006A0010001004200010042000000000BC
:10026000704700000000000008ED00E0000000D032
:1002700048080020D80D00206D400010D502001065
:100280002D400010F8B5C04606480749091A8B10E2
:10029000C90FC91810B5491003D0044B002B00D06A
:1002A000984710BD480800204808002000000000C2
:1002B000054B10B5002B03D00449054800E000BFF2
:1002C000FFF7E2FF10BDC04600000000940B0020C5
:1002D00068550010F0B5C64600B5AAB003F0E4FFBB
:1002E000FA20C00001F04AFC8B49A02202A802F0CB
:1002F00083FD0221152000F027F900211B2000F0CA
:1003000023F900211C2000F01FF90021092000F032
:100310001BF90021072000F017F9002406E0A200D5
:1003200002ABD058022100F00FF90134032CF6DDA6
:1003300000F0ACFB794B01220421092000F0D2FC33
:1003400001220421072000F081FC012204211B204E
:1003500000F07CFC01F00EFD714E002736184F4175
:10036000002F1DDB962189016E4801F067FE0221F6
:10037000052000F035FC0221042000F031FC6B4622
:1003800000229A7100F0F2FA00280DD066496B46FF
:10039000981D00F051FB012400239846002578E0C9
:1003A00001267642614FDDE700F0E0FA0028F2D046
:1003B0005D496B46981D00F03FFBECE76B46D81D8E
:1003C00000F06EFB00280DD002AB1B7D002B04D18A
:1003D0006A4607321278012A28D06A460732127814
:1003E000022A31D002AB1B7D002B52D1504B5B6AED
:1003F0009F424ED84E49896AB14201D29F4248D0AD
:1004000001235D40EDB2002D22D0D0231B068022B7
:1004100092035A6101F0AEFC414E002736184F415D
:10042000002F36DA01267642404F32E002A800F073
:10043000F2F8D0231B06802292035A613D496B4695
:10044000981D00F0F9FACDE7002BCBD00224C9E7C4
:10045000D0231B06802292039A61DBE700F044FB65
:1004600002A9012000F038F9002826D032496B4655
:10047000981D00F0E1FA01239C46E04401F07AFC6B
:100480002E4E002736184F41002F34DB4346072BF2
:1004900035D0012C92D0022CFBD1D0231B06802218
:1004A00092039A61224B5B6A9F42EFD82049896A86
:1004B000B142D3D29F42D1D1E8E7002608E0D02351
:1004C0001B06802292039A61642001F057FB0136DB
:1004D000052E0ADC01235D40EDB2002DEFD0D023C4
:1004E0001B06802292035A61EEE715496B46981D60
:1004F00000F0A2FABFE7012676420C4FC6E7114989
:100500006B46981D00F098FA02AB00221A75012480
:1005100000239846BDE7C046005E0010B50A0010F3
:1005200040420F000080034068550010FFFFFF7F2E
:1005300000400540705500108C550010404B4C0099
:100540007C5500109C55001070B505000C0000F0A3
:10055000DDFB022C22D00ED8002C14D0012C1CD193
:100560000123AB40D0221206936201220021280011
:1005700000F050FB11E0032C0FD10123AB40D0223F
:100580001206936209E00123AB40D0221206936267
:1005900000220121280000F03DFB70BD0123AB408B
:1005A000D02212065362F8E770B50C00836901335C
:1005B000D917490F5B18072213405B1A8361002289
:1005C00003E0D02109068B610132032A10DC93007D
:1005D0001D5883699B009B1806339B00C3185968FC
:1005E0000123AB400029ECD0D02109064B61EBE799
:1005F000012001F0C3FAD0231B065B68802252055C
:100600001340012C01D0002070BD002B01D0002030
:10061000FAE72000F8E7F0B5C64600B5050000236C
:1006200003619C2283500375D0231B065B681B0F5C
:1006300001241C40002705E0D0231B065B681B0F2C
:1006400001241C40002F36D121002800FFF7ACFF09
:100650000028F1D00127EFE7D0231B065B681B0FB2
:1006600001241C40002608E02B6901332B61D023B4
:100670001B065B681B0F01241C40002E0DD12100BE
:100680002800FFF791FF002800D03E00002CEBD19E
:100690009C22AB580133AB50E6E701239C46E04473
:1006A0004346002BD8DD9C22A958CB0F5B185B106A
:1006B000AB50002607E000239846F1E72100280010
:1006C000FFF772FF01369C23EB58B342F6DC01239F
:1006D0002B7580BCB846F0BDF0B583B00D000A693B
:1006E000D11707230B409B18DF104743D0231B066D
:1006F0005B681B0F01241C400026002301930AE0C5
:1007000021002800FFF750FFD0231B065B681B0F5A
:1007100001241C400136BE420BDA074800F0C0F944
:100720000028EDD0044B1B78032BE9D1023B019349
:10073000E6E7019803B0F0BDD40D002010B582B0FB
:100740000C00144BC3185A425341134A5B009B5E82
:100750008B4204D06B46DA1D1470002115E06B4605
:10076000DA1D0D23137000210029F3D183699B0644
:10077000FCD41378036001310132F5E783699B06ED
:10078000FCD413780360013101320029F6D002B0A5
:1007900010BDC0460080FCBFCC0D002030B583B03A
:1007A00004000D00002313E06B46DA1D11700020D9
:1007B00006E0A3699B06FCD4137823600130013264
:1007C0000028F6D02B780D3B5A425341DBB201355D
:1007D0002978002905D0002BE6D12000FFF7AEFFD5
:1007E000F0E703B030BD82B000226B46D91D06E0B1
:1007F0008369DB06FCD403680B7001320131002AE7
:10080000F6D06B46D87902B07047000070B504008E
:100810000D000648210003F07BFD2900200004F0B4
:1008200091FB002800D0012070BDC046AC550010DF
:10083000F0B58FB00F00160001AB00221A70010056
:100840002248FFF7ABFF01F095FA04000D00FA22F1
:10085000920000233000002102F040FA24184D419C
:10086000002D09DB002601F085FA8D4219D801D14F
:10087000844216D8002026E001246442144DF1E79A
:10088000002E0EDD01A800238355124904F05AFB07
:10089000002817D1390001A8FFF7B8FF002812D1AE
:1008A00000260A4B9B69DB06DDD40848FFF79BFF57
:1008B0000A28E5D00D28E3D0302EF2DC01AB9855A4
:1008C0000136EEE700200FB0F0BDC04600800340C7
:1008D000FFFFFF7FB8550010F0B58FB00F00160076
:1008E00001AB00221A7001001E48FFF757FF01F00C
:1008F00041FA04000D00FA2292000023300000218A
:1009000002F0ECF924184D41002D0ADB002601F01D
:1009100031FA8D420BD801D1844208D800200FB0A3
:10092000F0BD01246442104DF0E7002E10DC0D4BA9
:100930009B69DB06EBD40B48FFF755FF0A28F4D080
:100940000D28F2D0302EF2DC01AB98550136EEE7DF
:1009500001A8002383553900FFF758FF0028DED196
:100960000026E4E700800340FFFFFF7F10B5FA2276
:10097000224923485200FFF7AFFF002801D1002091
:1009800010BDFA221F4920485200FFF7A5FF00289A
:1009900001D10020F4E7FA221C491D485200FFF75C
:1009A0009BFF002801D10020EAE7FA2219491A48E2
:1009B0005200FFF791FF002801D10020E0E7FA2262
:1009C000164917485200FFF787FF002801D1002081
:1009D000D6E7FA22134914485200FFF77DFF00289A
:1009E00001D10020CCE711491148124AFFF720FF3E
:1009F000002801D00120C3E70020C1E7CC5500103A
:100A0000D0550010D8550010E0550010F4550010D6
:100A1000FC55001030560010385600104856001093
:100A2000505600105C5600106456001070560010AE
:100A300088560010204E000010B58EB004000A0049
:100A4000094B190001A803F0ADFAFA220749520038
:100A500001A8FFF741FF002803D0002323700EB048
:100A600010BD01232370FAE794560010CC550010F6
:100A700070B504000D00160000F09CF90300320070
:100A80002900200001F032FA70BD000010B50348C3
:100A90000A220121FFF7ECFF10BDC0467C0B0020AD
:100AA00010B50100024B180001F037FA10BDC04626
:100AB0007C0B002000B583B000230193092806D0E9
:100AC00007280CD01B2804D10323019301E0013334
:100AD0000193044801A901F01BFA03B000BD0223F1
:100AE0000193F6E77C0B002000B583B06B46D81D60
:100AF000FFF7D6FF0028F9D103B000BDF8B5CE4608
:100B0000474680B5D0231B061F68214BBA00D35837
:100B10009846002F03D01F4B994600262AE01E4B13
:100B20009946FAE7EB4012E024090135002C20D069
:100B300033000833AB421CD90F2319002140234254
:100B4000F2D0164BBA00D358202DEBD40023DB078C
:100B5000EAD407222A409200EB08080090403C3378
:100B60009B000F4A98504346002BDDD02800C04719
:100B7000DAE708361D2E06D8F30808339B004A46EC
:100B80009C583500D2E7C0BCB946B046F8BDC04657
:100B9000380B00203041014000410140BC0B0020D7
:100BA0000040014030B507240440A400C008A14023
:100BB00004003C34A400094D615180001B18002A38
:100BC00005D08022920194466344196030BDC02252
:100BD0009201944663441960F8E7C0460040014022
:100BE00010B58300084A9A18146840225440803295
:100BF0002240064CA44663441A60C000044B9C4645
:100C00006044416010BDC04604C0014004D00140B2
:100C10000040014080000C4B9C46604400290ED0EF
:100C20000823002A0DD004221343026853400C22EB
:100C300013408022520194466044036070470023B1
:100C4000EFE70022F0E7C04604C0014070B506009F
:100C50000D00141E0BD1D0231B061B68002B11D0D6
:100C6000094B220029003000FFF79CFF70BD0D20CA
:100C700000F06CF90028EED1044B054A0548BD216F
:100C800003F0D8F9044BECE730410140A4560010C2
:100C9000A05E0010D05600100041014070B5040065
:100CA000D0231B061D680D4BAA00D358002B0AD079
:100CB000002803D0094BAD00EC5070BD08490D2051
:100CC00000F08AFAF6E70028F7D0044BAD00E850B0
:100CD000034900220D2000F073F9EEE7380B0020E5
:100CE000FD0A001070B505000E0014001800FFF793
:100CF000D5FF220031002800FFF7A8FF002C00D10B
:100D000070BD01210D2000F00FF9F9E710B50123A6
:100D10008340D0221206936293610521FFF760FFA2
:100D200010BD00000FB400B583B0084803F0C1FA4D
:100D3000049B002B07D005A90191180003F0C8FA05
:100D4000034803F0B6FA012003F052F908570010E7
:100D5000A0560010EFF3108072B6034B1B68002BF7
:100D6000FBD0BFF35F8F70472C0100D0BFF35F8FC4
:100D7000024B00221A6080F3108870472C0100D0CB
:100D8000F8B506000C001500FFF7E4FFE308F718BC
:100D9000F15C07222240012393400B4205D1DBB2D4
:100DA0000B433B70FFF7E2FFF8BD21002800FFF77F
:100DB000B9FF0000054A1078431CDBB21370172BF3
:100DC00002D9130010221A707047C046400200205A
:100DD000002307E0054A9A189200BFF35F8F0021B5
:100DE000116001331F2BF5D97047C0464000003415
:100DF000074B9B68103080001950BFF35F8FBFF323
:100E00005F8F044B0021196082F310887047C04641
:100E100000ED00E0240100D00048704700E400E04D
:100E200010B5FFF7F9FF002302E0034A04C00133C5
:100E3000072BFAD910BDC0468080808010B503888A
:100E4000DA0A1C2A05D15B055B1502335B00C0186A
:100E500010BD034B034A8E210348490003F0EAF812
:100E600018570010045F00103057001010B5091A11
:100E70000B1F0A4A88180A4A904208D8C90706D4A4
:100E80005B105B055B0D0748184380B210BD064B35
:100E9000064A87210648490003F0CCF8FC07000009
:100EA000FE0F000000E0FFFF64570010F85E001026
:100EB0003057001010B5091A04394A08090B08D137
:100EC0004905490D064B0B430380064B13434380F2
:100ED00010BD054B054A8B210548490003F0AAF8CF
:100EE00000F0FFFF00F8FFFF94570010D45E0010E1
:100EF0003057001001238340034A10681840431EF6
:100F00009841C0B27047C04600E100E0002A05D019
:100F1000044BC0225200995019607047014A802347
:100F2000D150FAE700E100E010B50A001F230340AA
:100F3000012199404009FFF7E9FF10BD024B9B6872
:100F400010308000C058704700ED00E010B5FFF78A
:100F5000F5FF002806D0044B984201D0012010BDB7
:100F60000020FCE70020FAE7C101001070B5040082
:100F70000D00EFF3108672B60C4B1B68002BFBD0F4
:100F8000BFF35F8F2000FFF7D9FF094B984201D0D4
:100F9000A84205D1320029002000FFF729FF70BDCB
:100FA000044B054A0548ED2103F044F8240100D024
:100FB000C1010010A45700102C5F00103057001022
:100FC000F0B5DE4657464E464546E0B589B0814607
:100FD00001911500EFF3108B72B66F4B1B68002B5D
:100FE000FBD0BFF35F8F6D4B00269E57002E40DB7A
:100FF0007400A419A4006A4824180622A256674B5C
:101000001A70684B9A684B4610339B00D358984629
:101010001B1A2F2B3BD9644B984531D105AF634B3D
:101020003B80634973009A46981980005C4B984650
:1010300040440230FFF71AFF78805E4BBB80FF23ED
:10104000BB71FD71019B0793330053449B004344E4
:1010500007CF07C301231C43A0465A4641464846D2
:10106000FFF7C6FE09B0F0BCBB46B246A946A04693
:10107000F0BD514B514ABE215148490002F0DAFF00
:10108000504B4E4A84214E48FF3102F0D3FF0123DA
:1010900042469A439246101A0C2101F089FA00291F
:1010A0000FD153460027DA79AA4212D906215956A0
:1010B00000290DDB4A005218920039491F008B1895
:1010C000F1E7414B3D4ACA213D48490002F0B2FFD9
:1010D0001F00002F2ED005AB3C4A1A80813A5A805F
:1010E0000623FB560293002B17DA394805AB9A46C4
:1010F0009880029A9A71DD71019A0792381D210039
:10110000FFF7B4FEB880BE71254B720092199200B1
:101110009B18524613CA13C39FE7381DFFF78EFE74
:1011200001007000801980001D4BC0180430FFF7CB
:101130009DFEDBE705AF1D4B3B801D49730002930D
:101140009B199B00164A90461A0042440392901C39
:10115000FFF78CFE7880039A101D5146FFF786FE3C
:10116000B8801C4B52464146521A524153431B0D04
:10117000BB71FD71019A0792029B9B199B0043442E
:1011800007CF07C3114B52461380813B5380012385
:101190001C43A04661E7C046240100D0D50D0020C5
:1011A0004402002000ED00E0C101001000A1FFFF9B
:1011B0007402002001BDFFFFDC570010145F001017
:1011C00030570010045800102C580010014800003F
:1011D00001BD0000AAAA0000F0B5CE46474680B582
:1011E00083B006000D00EFF3108872B64F4B1B68FA
:1011F000002BFBD0BFF35F8F4D4B9A683400103447
:10120000A300D7584B4B9F4207D0AF4200D18AE092
:101210000197494BFB1A2F2B09D942463900300060
:10122000FFF7E6FD03B0C0BCB946B046F0BD3000E4
:10123000FFF760FE814600213000FFF775FEBFF327
:101240005F8FEFF30581002901D08C4211D101237A
:10125000019C9C430020A3689D4211D00622A25607
:10126000002A0CDB53009B189B00334A2000D41843
:10127000F1E7324B324A3348334902F0DBFE2000BB
:101280009D4249D106256557002D2BDB2A4B6A006C
:10129000521992009B189A68A260DA79E2719B79E0
:1012A0005BB2A371002B0FDA2848A080224B6A00A2
:1012B000521992009B18264A117899711570494667
:1012C0003000FFF731FEA8E76800401980001A4B94
:1012D000C0180430FFF7B2FD0100231D1800FFF70E
:1012E000C5FDE2E7002912D100280ED0FF2383714B
:1012F000184B838016490B78A3710F4A164BA41A1A
:10130000644163431B0D0B70D9E70A4FF2E71349A1
:10131000201DFFF7CFFDD2E7114B094A9121094863
:10132000890002F087FE034F77E7C046240100D012
:1013300000ED00E0C101001044020020B058001090
:10134000E45E0010305700100202000001BD0000F2
:10135000D50D002001BDFFFFAAAA00007E020020DB
:10136000E4580010F8B5012202432C4BD31A2F2B5E
:1013700028D8EFF30583002B2AD0EFF3108472B640
:10138000274909680029FBD0BFF35F8F234D25490A
:101390000600761B76417143090D4DB222498968DA
:1013A0009B00C958914219D00021032930D81B4B0A
:1013B0004A00521892009B189B795BB2AB421DD039
:1013C0000131F2E7194B1A4A1A481B4902F032FE62
:1013D0001A4B174A17481A4902F02CFE124A926813
:1013E0001849D150184B1A7882711D70BFF35F8F66
:1013F0000B4B00221A6084F31088F8BD074B4A009B
:101400005618B6009E19FF27B771104AB280E9E757
:101410000F4B074A07480F4902F00CFE4402002018
:10142000240100D0AAAA000000ED00E0EC58001052
:10143000B85E0010305700107F02000014590010F1
:1014400082020000C1010010D50D002001BDFFFF88
:101450002059001093020000024B9C466144890011
:10146000016070474000003410B50400FFF7A2FC93
:1014700001002000FFF7F0FFFF232371BFF35F8F10
:1014800010BD10B50400FFF795FC01002000FFF728
:10149000E3FFFF23237100236371BFF35F8F10BD50
:1014A00010B50D4C09E00D4B0D4A0E481A2102F003
:1014B000C1FD2000FFF7D8FF08340B4B9C4209D236
:1014C0002368002BF5D0012BEDD12000FFF7D9FFC9
:1014D0000834F2E710BDC04640080020285900102B
:1014E0006C5F0010485900104808002030B5846A2D
:1014F000151B0B1D9B001B581B1B9D4204D3046A2C
:1015000001238B40234202D1043189000A5030BDAF
:1015100000040843704700000A4B1968EFF310837A
:1015200072B60A68002AFCD0BFF35F8F054A1268C2
:10153000BFF35F8F0021116083F3108840BF00204C
:1015400000217047C80D0020F0B5DE4657464E46D4
:101550004546E0B583B0EFF3058303221A4011003E
:101560000192AC4B9200D35898461B788B4207D11E
:101570000123019A93400093A74B009A1A6019E146
:10158000A64BA74AA748922102F054FD43465A6948
:101590004B465B004B44DB0093469B445B469E6896
:1015A000DF68A14800F0B4FB801BB941002900DAD4
:1015B0000AE1002F60DB5B461C699C4B9C4245D0D6
:1015C00043460820185E5B46598889B2FFF7A0FFA2
:1015D0005B465969A04704000D0023002B434BD004
:1015E000002D3DDA30003900001BA9415B469860B0
:1015F000D96000241C5F002C00DAE5E043465A69FC
:10160000924663001B19DB0053449A68DB680500AF
:101610000E00AD1A9E41002E00DAD5E043461C8133
:1016200047460837BC46634600255D5F002D1DDB3D
:101630006C006419E4005444A268E36806000F00DB
:10164000B61A9F41002F11DBA446ECE75B465C69AC
:1016500023692000984700280ED065682468BCE7FD
:10166000714800F055FB00196941BFE75B461D80DA
:101670004B4662461380A7E05B4600229B5E4246D3
:1016800013811269EFF3108372B611680029FCD040
:10169000BFF35F8F42460221525E59460A8042469E
:1016A000494651801269BFF35F8F0021116083F3B7
:1016B000108889E043461969EFF3108372B60A680F
:1016C000002AFCD0BFF35F8F4246928812B2914647
:1016D0000122524241468A800A69BFF35F8F00218E
:1016E000116083F310881AE09B465B4600229A5EE5
:1016F000002A0BDB53009B18DB0053449868D96821
:1017000026002F00361A8F41002FEDDA4B4659463E
:101710000B80634600215B5E994663461A804B4608
:10172000002B57DB43465A6992464B465B004B44BD
:10173000DB009C46D44463469C68DD684646083618
:10174000B346D2E7002342469371414608314346EF
:101750000820185E11E001225242D317A260E36014
:10176000434608229B5E834206D00D8043460822F2
:101770009B5E2380434618812800431C2ED043469D
:101780005A6943001B18DB00D418D55E63881BB26E
:10179000002BE0DB2100EFE722002B00019922481B
:1017A000FFF7A4FE204800F0B3FA241A8D41002D63
:1017B00028DC25D01C4B009A5A63434608229B5EC6
:1017C0009946002B00DBE1E643469B881BB2002BC9
:1017D00000DB6FE743469B79002BB3D143460822D9
:1017E0009A5E002A0EDB4346596953009B18DB00C2
:1017F000CB189C68DD68631CCED16B1CD2D0CBE7C4
:10180000002CD7D040BF03B0F0BCBB46B246A946BF
:10181000A046F0BDAC0B00203C700540CC59001038
:10182000985F0010F859001000400540491500105D
:1018300070B504000D0011000126AE4006622800BC
:10184000FFF794FB01212800FFF76EFB024B9C463B
:101850006444266070BDC04638200000F8B5CE460E
:10186000474680B50600894690461F00C160FFF7D5
:10187000A1FA154B9C4660448000306143463370AA
:10188000BBB27381D02212061278727001225242CA
:101890003281B2809B187380002406E0621E736957
:1018A00065002D19ED005A530134BC42F6D3074BA5
:1018B00042469200D650064A41464846FFF7B8FFD6
:1018C000C0BCB946B046F8BD40000034AC0B0020A7
:1018D0004915001010B5064B1B69002B01D00448B8
:1018E00010BD044B044A0548652102F0A3FBC04625
:1018F0008C020020285A0010805F0010F859001058
:10190000F8B504000569EFF3108072B62968002964
:10191000FCD0BFF35F8F0221665E65697100891993
:10192000C9006D18002E02DB0027E95F6180216984
:10193000BFF35F8F00270F6080F31088002E2CDB31
:101940000699296107996961AA60EB606B88013388
:101950005B04590C002B00D1012169803000FFF796
:10196000D7FD2169EFF3108372B60A68002AFCD014
:10197000BFF35F8FA2882A80A6802269BFF35F8FA2
:101980000021116083F31088E368217801228A40E6
:1019900003498C4663441A60F8BD01204042FBE7CE
:1019A0003C20000070B582B0060014001D0008AB9A
:1019B0001B78002B07D100F0DDF922002B00121A52
:1019C0008B41002B0ADB079B0193069B00932200AF
:1019D0002B003000FFF794FF02B070BD0020FBE742
:1019E000F0B5C64600B584B00500884616001F0055
:1019F0000AAB1C78FFF76EFF0294019700962A004D
:101A00004346FFF7CFFF04B080BCB846F0BD0000EE
:101A100030B5030008145A8990422EDA5C694200FE
:101A20001218D200A2181D69EFF3108472B628684C
:101A30000028FCD0BFF35F8F508880B20904090CE6
:101A4000884212D000201A69BFF35F8F0021116015
:101A500084F31088002811D0DA681B78013199408E
:101A6000074B9C466244116008E00649014389B275
:101A7000518001229A710120E5E7002030BDC04667
:101A80003C2000000080FFFF10B50400FFF722FF9C
:101A90002100FFF7BDFF10BDF0B583B006000F00B9
:101AA000EFF30583002B1AD106246442E517A4192D
:101AB0007D418D4202D803D1844201D90024002502
:101AC00000F058F922002B00121A8B41002B0BDC7E
:101AD00008D03000390000F05FF903B0F0BD1A48BB
:101AE000FFF720F9002AF4D0184A002300932000C1
:101AF0002900FFF775FF002818DAEAE7002300E065
:101B00000023002BE5D1124B1968EFF3108372B656
:101B10000A68002AFCD0BFF35F8F0D4A1268BFF33A
:101B20005F8F0021116083F3108820BF094B5B6A2F
:101B30009D42E5D80749896AA14203D29D42DDD082
:101B40000123DEE70123DCE74C5A001019150010D1
:101B5000C80D00200040054070B504000D0000F0E5
:101B600009F900196941002902DBFFF795FF70BDF3
:101B7000012040420049F8E7FFFFFF7F10B5FA223D
:101B800092000023002101F0A9F8FFF7E5FF10BD46
:101B9000F0B5CE46474680B583B005000C00EFF3A4
:101BA0000583002B15D0434B5B6A8B4209D3414A16
:101BB000926A82420BD28B4201D0012002E00020C7
:101BC00000E0002003B0C0BCB946B046F0BD012023
:101BD000F8E7FFF77FFEC3689946037898462E0022
:101BE0002700484600F094F802000B00B61A9F4107
:101BF000434604339B004A469B581B1A0022BA42B4
:101C00000FDC0CD020BF2B4B5B6A9C4220D8294AAA
:101C1000926AAA421ED29C4218D00120D2E7B34257
:101C2000F0D9254A0023009328002100FFF7D8FEB1
:101C3000002811DD1F4B5B6A9C4221D81D4A926A25
:101C4000AA422FD29C4219D001231AE00020B9E702
:101C50000020B7E70120B5E7164B5B6A9C4209D824
:101C6000144A926AAA4207D29C4201D00120A9E7F5
:101C70000020A7E70020A5E70120A3E7002300E05C
:101C80000023002B00D120BFFFF7FEFE094B5B6A4B
:101C90009C420BD8074A926AAA4209D29C4203D0BE
:101CA00001208FE70123ECE700208BE7002089E784
:101CB000012087E7004005401915001000487047D3
:101CC0000040054010B50B4B1B69002B04D00A489F
:101CD0000A21FFF7C1FB10BDFFF7F0FF040003214D
:101CE00000F00CF80348102303222100FFF7B6FD93
:101CF000EDE7C0468C020020C80D002010B5024A56
:101D00000248FFF73DF810BD9C5A0010480B002018
:101D10000200436A906A1900536A9942FAD17047E7
:101D2000416A00E0416A9942FCD300E0416A99426D
:101D300002D1816A9142F9D37047F0B5C64600B529
:101D4000804614001D00FFF7E3FF06000F0022008D
:101D50002B0092197B41994202D804D1904202D9BA
:101D600001225242D3174046FFF7DAFF80BCB84643
:101D7000F0BD000010B50248FFF7CAFF10BDC04615
:101D80000040054010B502000B000248FFF7D5FFE8
:101D900010BDC0460040054010B502000B000248CF
:101DA000FFF7BEFF10BDC0460040054010B5C38917
:101DB0008B4204D3436882895143581810BD034BAA
:101DC000034A0448192102F035F9C046C05A0010F0
:101DD000B05F0010DC5A0010F8B504000D000CE0F4
:101DE000E7899F421AD1002A31D02368BFF35F8F61
:101DF0000021196086F3108820BF2168EFF3108658
:101E000072B60B68002BFCD0BFF35F8F218963890A
:101E1000CB1AE5D5E08901301B18E1E72000FFF778
:101E2000C5FFA289290000F0E7FF238901339BB297
:101E3000E289934200D9002323812368BFF35F8F97
:101E400000221A6086F3108840BF0120F8BD236885
:101E5000BFF35F8F0021196086F310881000F5E74B
:101E6000F8B504000E000BE0002B1AD1002A34D084
:101E70002368BFF35F8F0021196087F3108820BFAC
:101E80002568EFF3108772B62B68002BFCD0BFF3E8
:101E90005F8F238961895B1AE6D5E58901355B1976
:101EA000E2E7002E07D02000FFF780FF0100A289A3
:101EB000300000F0A1FF638901339BB2E2899342B5
:101EC00000D9002363812368BFF35F8F00221A606B
:101ED00087F3108840BF0120F8BD2368BFF35F8FF0
:101EE0000021196087F310881000F5E770B5040031
:101EF0000D0016001900FFF7AFFA701C290000F062
:101F000061FF6060E681A58100232381638170BD4C
:101F100010B50022FFF760FF10BD10B50022FFF7DB
:101F20009FFF10BD074B98420AD0162301229A400A
:101F3000054B1A60054B1B6811009943FAD1704795
:101F40001723F3E70080034000F0004008C0004082
:101F500070B5046BE30701D4200070BD0B4BC318B0
:101F60000B4A1A60456A836AAD01ED18AD0206207E
:101F700000F016F9074900F01BFB0100280000F0F3
:101F800017FB0021FFF7FEFEE6E7C04630300000F9
:101F9000010300004E0E000070B504000E00150095
:101FA000FFF7D6FFE36A5E403540024BE3181D6041
:101FB000206370BD2C10000070B505000C000620D9
:101FC00000F0EEF8C000210000F0F2FA0130C6097E
:101FD00007D00E4B9E4215D8400834003F260640DD
:101FE00000E001246C62AE62002200212800FFF7AD
:101FF000D3FF062000F0D4F88000A101891900F079
:10200000D7FA70BD0026024CECE7C046FEFF000088
:10201000FFFF0000002909D00A22064B9C466044BD
:1020200043425841044B4000C25270478022520044
:10203000F3E7C0460080FCBFCC0D002070B5040063
:102040000D00062000F0ACF800281ED0104B9C427A
:102050001CD01622012393400E4A13602000FFF784
:1020600061FF00212000FFF7D5FF29002000FFF7C6
:10207000A3FFE26A70235A400E331340064AA218A7
:102080001360064B23630323A36470BD1722E1E7AB
:102090000080034000E000402C100000010300001D
:1020A000F8B5D646474680B506000D00170098469D
:1020B00044002418A400294B9C4664446368089A91
:1020C000934200D26260331FDBB29A46012B2ED9B5
:1020D00080221201C0239B01E3181A60204BB2003A
:1020E000D158002907D0586900F062FA0130430046
:1020F0001B18033BFDD27F0123685F40E0233B4078
:1021000080225201A21813605346012B1AD9802352
:102110009B01E318802212011A60089B6360104B38
:10212000B6004246F250C0BCBA46B046F8BD012DDA
:10213000CED10322C0239B01E3181A60A368DB07FA
:10214000FCD5D8E72168694003230B401360A368DE
:102150000122AA401A42FAD0D9E7C04600800040C6
:102160004C0B0020F0B583B005000E0017001800DE
:10217000089900F01DFA0300089A140200943A002E
:1021800031002800FFF78CFF03B0F0BD10B582B01E
:10219000802464000094FFF783FF02B010BD0000AC
:1021A000014B8000C05870474C0B0020F0B5C6466C
:1021B00000B504000E0017001D00374800F0F8F9C4
:1021C0008046364BFA18364B9A4239D8010038000F
:1021D00000F0EEF90200103A98235B009A4235D8DD
:1021E0006B1E062B38D8069B013B062B34D83F09C3
:1021F000474537D32D04069B1B031D432368002B43
:1022000036DB284B9C4244D00C2201239340264AC3
:102210001360264A1360264A1268190091430A1E69
:10222000F9D12660A060234BE31821321A6022689E
:10223000002AFCDAE56008221A6080BCB846F0BDCE
:102240001D4B1E4A1E48112101F0F4FE1D4B1B4A76
:102250001B48192101F0EEFE1B4B184A18481C219F
:1022600001F0E8FE194B154A1548232101F0E2FE62
:1022700022683F231340B342C3D1A3681B051B0D43
:102280008342BED1E368EE22D2021340AB42B8D102
:10229000D3E70D22B9E7C046001BB70080E84BD357
:1022A00080F8A93200C0024000E0004000F0004089
:1022B00008C00040043000000C5B0010BC5F001040
:1022C0005C5B0010905B0010AC5B0010F85B0010D2
:1022D00080239B000B43014AD36270470080054076
:1022E00010B5010018231B8814221088984710BDD0
:1022F00010B5010018231B8816221088984710BDBE
:10230000F0B5C64600B507000E000025012398462B
:1023100000E00135B5420AD2AC003C192068FFF755
:10232000DFFF20600028F4D100239846F1E7404603
:1023300080BCB846F0BD0000074BAA2212011A600B
:102340008D225200DA60054B054A1A60024B5B6829
:10235000002BFBDA7047C04600400240006002409C
:1023600000B0FA0010B5040001E008CC9847024B19
:102370009C42FAD310BDC04664550010704700005F
:1023800010B50248FFF7EEFF10BDC04628550010FB
:10239000054B064A1A60064B064A1A60064B1A6835
:1023A000044B9343FAD1704700E00040BFCDFBFEE1
:1023B00000F00040FE7F3C0008C00040044BDB6C96
:1023C000002B03D1034B8022D2021A607047C04613
:1023D000000011504C201150044B054A1A60054B67
:1023E0001B68DB43DB01FAD17047C04600F00040B8
:1023F000FFFFFF0108C00040034B40229A675A6765
:102400001A67DA667047C04600F0014010B5FEF763
:10241000DFFC10BD10B50C4A0C4BD21A9210140000
:10242000302A00D9302292000948084900F0E4FC23
:1024300004E0084A064BA100CA5001342F2CF8D9F9
:10244000034B054A936010BDC0010010000100104D
:1024500000000020C101001000ED00E070B5042074
:10246000FFF79EFE064900F0A3F805000024002CAB
:1024700000DD70BDE0B22900FFF72AFF0134F6E766
:1024800040420F0030B583B0274B00229A67FFF718
:1024900053FF264B01221A60234B5B6C012BFBD1AF
:1024A000234B03221A60204B9B6B012BFBD1013382
:1024B000009304331F4A01211F48FFF777FE0523CD
:1024C00000931E4A01211E48FFF770FE1D4B00229B
:1024D00002210420FFF75AFE1B4D2B000022012190
:1024E0000520FFF753FE194C23000022002107208E
:1024F000FFF74CFE2300002200210820FFF746FED4
:102500008023DB0000932300002200210920FFF735
:1025100029FE2B00002200210620FFF737FEFFF7DF
:102520009DFF03B030BDC046008000403CB000407D
:1025300030B00040002F685900800240008C864770
:1025400000C00240001BB70040597307006CDC025A
:1025500001480421014B1847B0020020012300105C
:10256000124A936F9B0815D29066D166002905D058
:10257000FFE7FFE7FFE7516F106F704704B5802159
:102580000906C2175140002800D0C84302F0BCFF22
:10259000002104BDF0B5146E556E576F166FFFF72E
:1025A000E3FF1466556657671667F0BD000000D05C
:1025B000114A936F9B0813D210665166002905D00B
:1025C000FFE7FFE7FFE7516F106F704704B5002882
:1025D00001D00020C04302F097FF002104BDC04697
:1025E000F0B5146E556E576F166FFFF7E5FF146662
:1025F000556657671667F0BD000000D094464A4AFA
:10260000926F9208624601D228E0C046F0B5464E6D
:10261000346E756E776F366F00F020F89446424A3C
:1026200014665566576716676246F0BD94463E4A83
:10263000926F9208624601D254E0C046F0B53A4E1D
:10264000346E756E776F366F00F04CF89446364AEC
:1026500014665566576716676246F0BD002B24DB8B
:1026600011D000293EDA00B5C943404200D1013102
:1026700000F038F8C943404200D10131DB435242F7
:1026800000D1013300BD002AEBD1002801D100297F
:1026900005D00020C90FC90701D1C043410800B5CA
:1026A00002F02AFF0022002300BD00B500290ADB4A
:1026B000DB43524200D1013300F014F8C9434042D9
:1026C00000D1013100BDC943404200D10131DB439B
:1026D000524200D1013300F005F8DB43524200D1F1
:1026E000013300BD002923D1002B18D1002A0CD0C2
:1026F000BC460D4F38667A6600210023FFE7FFE7EE
:10270000FFE77A6F386F67467047002801D00748A7
:10271000010000B502F0F0FE0022002300BD02001F
:102720000B00002000217047000000D0FFFFFFFFDA
:10273000002B00D0BFE0130C28D1002AE7D080B4D2
:10274000114F39667A66FFE7FFE730B4040C7B6F00
:10275000396F1B0423433B667A66FFE7FFE7FFE719
:10276000C04684B27B6F3D6F1B0423433B667A6691
:10277000FFE7FFE7C04600232C042D0C7A6F386F6B
:1027800000196941B0BC7047000000D0F0B5944614
:102790000025140E01D112020835140F01D11201C7
:1027A0000435940F01D192000235D40F01D15200AB
:1027B0000135D40B0134254F7C66254C3C660E0C4C
:1027C00093B2FFE7FFE7FFE73C6F6643360C770302
:1027D000BE467343DF0B5B04C01AB941130C73434D
:1027E000DB18C91ACE086643360CB64493B273435D
:1027F0001F0F1B01C01AB941130C73431F0B1B059C
:10280000C01AB941860D8F023E436643360C092D2E
:1028100024DB520A7243801A7703460A6643360C59
:1028200016235B1BDE40DF40BF1964466643821BF4
:102830007046043506330100D940A840C01900D3C2
:102840000131A24206D20023F0BD0000000000D0FA
:10285000FFFFFFFF121B0130F3D3F1E709277F1BB6
:10286000FE406446A2B27243801A00D20139220CA3
:102870007243130C1204821A99410B0070460435FE
:1028800013370100F940A840801900D30131002B13
:1028900002D1A2420AD2F0BD013000D30131121B95
:1028A000FAD2013BF8D1A24200D2F0BD013000D3F0
:1028B0000131121BF7E7F0B51C0C00D080E00CB41E
:1028C00000251C0A04D11B02160E334312020835E0
:1028D0001C0B04D11B01160F3343120104359C0B52
:1028E00004D19B00960F334392000235DC0B02D1DA
:1028F00092185B4101351C00971864410134464F22
:102900007C66464C3C660E0CFFE7FFE7FFE7C046DF
:102910003C6F6643360C7703BE4697B27743C01BC5
:1029200000D20139C01B00D201399FB27743C91BC5
:10293000C91B170C77437E04FF0B801BB941CE08DF
:102940006643360C0C2D33DBB644120B1F053A439D
:102950001B0B97B27743C01B00D201399FB277435C
:10296000C91B170C77433E043F0C801BB941860DF1
:102970008F023E43664329277F1BFE400C3D77466E
:10298000AF40BF1930BCA2B2ABB272437343801ADE
:102990009941220C7243130C1204801A99410200CF
:1029A0000B000137001BA941F9D2781E0021F0BDB0
:1029B0000C277F1BFE4077467F0BAF40FF19E0E7F7
:1029C00000245D1C07D0144F7D663966FFE7FFE7E2
:1029D000FFE7FFE73C6F95B29EB265436643401B3D
:1029E000B141150C1E0C6543664336042F0C3E4363
:1029F0002D04401BB141994204D202000B0020007B
:102A00000021F0BD01D19042F7D3801A99410134E1
:102A10009942F2D3F6E70000000000D0FFFFFFFF6D
:102A200048404140484018B4134B5B68019308BDCF
:102A300018B4114B1B68019308BD94460F4A926F5E
:102A4000920805D2624618B40B4BDB68019308BDAF
:102A50000A4AF0B5146E556E576F166F6246FFF74F
:102A6000F2FF064A1466556657671667F0BD18B43C
:102A7000014B9B68019308BDC40B0020000000D0EF
:102A8000FFB550404240504059404B40594000E053
:102A9000FFB5154F4C00640D03D0BC4204D10C03AC
:102AA00014D80020090D09055C00640D03D0BC4258
:102AB00004D11C030AD800221B0D1B0501264B4024
:102AC00009D44B4003D58B4200D18242FFBD9942CD
:102AD000FCD19042FFBD0B43DB1803431343F5D0F9
:102AE000C9434918FFBD0000FF07000000B5FFF70C
:102AF000CFFF804100BDC04600B5FFF7C9FF01D937
:102B0000002000BD012000BD00B5FFF7B9FF01D9CD
:102B1000002000BD012000BD00B5FFF7B1FF8041DE
:102B200000BD012040054A00121804D85A001218AE
:102B300001D80020704701207047000000210028C4
:102B400005D17047C1174840401AFAD0C90713B5DC
:102B5000064B1B6898470CBC441CA2401005120B86
:102B60000349091B09051943114310BDC40C00207A
:102B70001F04000010B54C00620D8023D218DB004A
:102B8000D21A5B057E2A10DD9E3A13DACC170903B0
:102B9000490819435242D140640001341532202AB9
:102BA00005DAD0400843604310BD002010BD084640
:102BB000604310BDC80FC018013810BD18B4024BD7
:102BC0005B6A019308BD0000C40B002010B50148EA
:102BD000FEF7A8F8145C001070B513231C78012CC4
:102BE00012D0012C12DC214B214A93642148FFF7BB
:102BF00077FB214B186070BD20491D4A9800815019
:102C000001331F2BF8D9ECE70023FAE71C48FFF744
:102C10006FFB05001B48FFF76BFB023803789B0036
:102C20007F2B09DD12488022290000F0E5F8022CF4
:102C300008D0022CDADCD6E7134B144A14483321AF
:102C400001F0F8F9134B1A88B5231B029A4209D1F7
:102C5000114B1A88114B9A4204D1114B1A88114B0F
:102C60009A42E6D00020FEF75DF8C046A92C00107D
:102C7000C40B00204C330000C40C0020CD2B0010EE
:102C800053440000534600002C5C0010C85F001045
:102C9000705C001054380000D8380000494600002D
:102CA0009C3800005946000007B56046002800D156
:102CB00000BE01880A0A0230DF2AFAD1C9B28208AE
:102CC00004D3028840880004104300E00068024AF0
:102CD0005050039007BD0000C40B002051434343F4
:102CE000C9188C46110C83B24B4310B4040C6143D9
:102CF00092B280B2504362431C041B0C001910BCFA
:102D000059411304120CC01851416144704700002E
:102D100010B50148FEF706F84456001070B51323AD
:102D20001E781848FFF7E4FA0500012E11D0012E95
:102D300009DDAB1E1B789B007F2B1DDD1248802216
:102D4000290000F059F81148FFF7CAFA104B186033
:102D500070BD0D485422290000F04EF8002300E019
:102D600001331F2BE3D8084A9C00A258002AF7D150
:102D70000849054AA150F3E7074B084A0848422191
:102D800001F058F953460000C80C00204C330000F5
:102D9000C40C0020112D0010B85C0010DC5F001086
:102DA000EC5C001010B5002804D04018034B98428A
:102DB00000D810BD0248FDF7B5FFC0460000042052
:102DC000305D001070B506000C0001F0CBFB050073
:102DD00021007143FFF7E6FF280070BD0148042180
:102DE000014B1847C002002001230010014B1B6853
:102DF00018470000C0020020014B5B681847000024
:102E0000C00200209A4200D288547047704710B523
:102E1000002802D00B684968984710BD01000020C7
:102E200007E083001B185B00501C08601078C01876
:102E300030380A681378303BDBB2092BF1D9704780
:102E4000F0B5DE4657464E464546E0B583B093465C
:102E50001F000C9B9A460D9C0E9B99460F9B9B074F
:102E600003D0B8460F00060022E00192A346884630
:102E70004E46B9460700B44207D2551C4B46414660
:102E80002020B84701342A00F5E73D004F465C4654
:102E9000019B9B46B1464646B84637002E0007E0E8
:102EA000013C551C5346185D43463900B0472A0083
:102EB000002CF5D135003E0047460F9B9B0707D4F9
:102EC000100003B0F0BCBB46B246A946A046F0BD18
:102ED000B0464E46B9462F005D46531BB342EFD273
:102EE000541C4B4641462020B8472200F5E7F0B578
:102EF000CE46474680B585B0944698460C9D0D9CBD
:102F00000EAB1B789946109A119B129EB7071CD4E2
:102F1000002B0CD0F7070AD54F46002F02D10C37F3
:102F2000374204D0013B02E030272F550134944250
:102F300001D21F2CF8D9F70707D59C4205D21F2CC8
:102F400003D830272F550134F5E7F70612D577055A
:102F500005D4002C03D0944221D09C421FD00F9A5C
:102F6000102A32D00F9A022A37D01F2C0AD83022CA
:102F70002A5501341F2C05D84A46002A33D02D2269
:102F80002A55013403960293019400954346624604
:102F9000FFF756FF05B0C0BCB946B046F0BD621E93
:102FA000012C10D00F9F102F0BD014000F9A102A55
:102FB000D8D1B206D6D51F2CD4D858222A550134E0
:102FC000D3E7023CCBE71400C9E7B206EED41F2CCE
:102FD000ECD878222A550134C7E71F2CD2D86032AA
:102FE0002A550134C1E7720703D52B222A55013433
:102FF000C8E73207C6D520222A550134C2E7F0B50A
:10300000DE4657464E464546E0B593B081468A4671
:10301000089209931CAB10CB1B789B461E9D219BED
:103020009846002C03D1102342469A4390468023B1
:10303000DB0046461E4042461A4212D0002C22D0E7
:1030400000260EE03033D9B2771C0AAB995529001F
:103050002000FFF7ADFAAC4216D31F2F14D83E0064
:10306000040029002000FFF7A3FACBB2092BE9D90D
:103070004246920605D54121C918C9B20A39C9B2DA
:10308000E2E76121F8E7270043460693209B05937A
:103090001F9B049303955B46029301970AAB009331
:1030A000099B089A51464846FFF721FF13B0F0BC30
:1030B000BB46B246A946A046F0BDF0B5DE4657462F
:1030C0004E464546E0B597B00A900B910C929A4651
:1030D000209B9946219F22AA13789B46249B099303
:1030E000259C289B98464A463A4302D11032934386
:1030F00098468022D20045461540434613420AD0E6
:103100004A463A4341D000252E0053460D934D4682
:10311000099B9A461BE02E0053460D934D46099B92
:103120009A4614E03033DAB2731C99460EAB9A55C6
:103130005246230028003900FFF778FABC4226D80F
:1031400019D04B461F2B1CD84E4605000F00524687
:10315000230028003900FFF769FAD3B2092BE1D91F
:103160004246920605D54122D218D2B20A3AD2B2CC
:10317000DAE76122F8E7AA45E3D94E460D9B9A4665
:1031800008E04E460D9B9A4604E0002602E04E46BB
:103190000D9B9A4643460693279B0593269B0493D3
:1031A000099B03935B46029301960EAB0093534633
:1031B0000C9A0B990A98FFF79AFE17B0F0BCBB4621
:1031C000B246A946A046F0BDF0B5DE4657464E468B
:1031D0004546E0B591B0804689460C929A461A9CC5
:1031E0001B9D22002B0020002900FFF79AFC0028DD
:1031F00000D0ECE001225242D44B20002900FFF71E
:103200008BFC002800D0E2E001225242D04B20008B
:103210002900FFF76BFC002800D0D8E00022002333
:1032200020002900FFF762FC002800D0E4E00694AB
:1032300007958023DB001E9A1A400D921E9A1A42AF
:1032400001D106231C930698079902000B000892EF
:10325000099303000A00024300D1D9E0080D40059C
:10326000400DBC4EB44660440A03120B1E00BA4B1C
:1032700013431F00FFF766FCB84AB94BFFF7F7FB93
:10328000B84AB94BFFF7D4FB089009910022B74B1D
:1032900030003900FFF7C7FBB54AB64BFFF7E7FB35
:1032A00002000B0008980999FFF7C2FBFFF762FCC8
:1032B0008346FFF747FC06000F00AF4AAF4BFFF70E
:1032C000D6FB0022AE4BFFF7B3FBFFF753FC089091
:1032D000AC4AAD4B30003900FFF7C9FB06000F00C8
:1032E0000898FFF72FFCA94AA94BFFF7C0FB020083
:1032F0000B0030003900FFF796FB06000F000200BC
:103300000B00FFF7B4FB0A900B91089BA14A94466F
:10331000634400210022089109921B0509930023B0
:10332000089332003B0030003900FFF781FB0E901C
:103330000F9132003B0000208021C905FFF773FB8D
:1033400006000F000022944B0A980B99FFF775FBBB
:103350000022924BFFF76CFB02000B000A980B99BE
:10336000FFF76BFB00228E4BFFF762FB02000B00A6
:103370000A980B99FFF761FB02000B00300039003F
:10338000FFF756FB02000B000E980F99FFF755FB55
:103390000022714BFFF74CFB089A099BFFF767FB74
:1033A00006000F0008960997069A079BFFF7B4FBE3
:1033B00000282FD001235B429C46E3440022774B38
:1033C00030003900FFF739FB0890099122E01E9B7D
:1033D00004931D9B03931C9B0293009401955346F9
:1033E0000C9A4946404600F0FFF811B0F0BCBB46CD
:1033F000B246A946A046F0BD0021002206910792E0
:10340000069480231B069C46AC446346079310E752
:1034100000239B465B466333C62B20D804261E9BA5
:103420001B0528D5089A099B190011430FD05D4A46
:103430005D4B06980799FFF767FB00287AD00022BA
:103440005A4B06980799FFF751FB002872D01C9B36
:103450005B4506DD5A469B1A013B1C9303E005269B
:10346000DDE700231C938023DB001E9A1A431E9283
:10347000002600239B461D9B9E4265D29F1B022374
:103480001E9A1A400A921E9A134202D0002E00D0B1
:1034900000275B46002B07D0089A099B06980799DE
:1034A000FFF7CBFA069007910022002320002900A5
:1034B000FFF71CFB002800D07CE03D4B1E9A134018
:1034C000049303971C9B0293069B079C0093019413
:1034D00053460C9A4946404600F086F8002E00D12B
:1034E00083E71E9B9B0671D54525441C534602006D
:1034F00049462800C0475A46D317D2185A400523D8
:103500000593013E0496002303930A3302935B461E
:10351000DB0F019300925346220049464046FFF7D5
:103520006EFD0A9B002B00D15FE7020047460C9E10
:103530001D9D53E01C9B002B9DD00D9B002B9AD012
:103540001C9B013B1C9396E7002798E7FFFFEF7F4A
:10355000FFFFEFFF01FCFFFF0000F03FFB799F50F2
:103560001344D33FB3C8608B288AC63F0000F83F9E
:1035700061436F63A787D23F71A379094F930A40D4
:103580000000E03F1655B5BBB16B0240EF39FAFEC3
:10359000422EE63FFF03000000002C4000002440C4
:1035A000000018402D431CEBE2361A3F80842E4168
:1035B000FFF7FFFF069C079D2200290080200006E0
:1035C000844661440B000692079376E765258CE7F5
:1035D000541C534649462020B8472200931BAB4257
:1035E000F6D3100001E7C046F0B5DE4657464E461A
:1035F0004546E0B595B00690079193469946209FC1
:103600001E9A1F9B10001900FFF78BFA002831D17A
:1036100001225242BF4B1E981F99FFF767FA0028FC
:1036200037D101225242BC4B1E981F99FFF774FA02
:1036300000283DD10022B94B1E981F99FFF76CFA64
:10364000002850D10022B64B1E981F99FFF74EFA62
:10365000002848D1002200231E981F99FFF746FA40
:10366000002850D100239846229B5B0500D4B6E089
:10367000002458E0229B0393219B02930323019390
:10368000A84B00934B465A4607990698FFF7D8FB7C
:103690000EE1229B0393219B029304230193A24BEF
:1036A00000934B465A4607990698FFF7C9FBFFE07F
:1036B0000423229A1A4022990B4210D09B4B002AD5
:1036C0000FD0042222990391219902910192009333
:1036D0004B465A4607990698FFF7B2FBE8E0944B31
:1036E000EDE70322EEE7229B0493219B03930297CD
:1036F0001E9B1F9C009301944B465A4607990698BF
:10370000FFF762FDD4E01E9A1F9B00200021FFF707
:103710008AF91E901F9101239846A5E70CAB302231
:103720001A55013F01341F2C01D8092FF6D81E98D5
:103730001F99FFF71FFA0500FFF704FA02000B00BC
:103740001E981F99FFF76FF97A4BFA009B181A68B9
:103750005B680A920B93FFF78AF908900991FFF7CB
:103760002DFA0600FFF7EAF902000B000898099904
:10377000FFF759F90890099100226F4BFFF7CCF938
:1037800000282ED001363000FFF7D8F902000B00D8
:103790000A980B99FFF7B0F9002801D001350026EF
:1037A000002F2CD12800FFF7CDF902000B001E9846
:1037B0001F99FFF738F906000F0000225E4BFFF754
:1037C00095F9002846D100225B4B30003900FFF705
:1037D000A3F900283ED1EB073CD501353AE0062796
:1037E00046E70022544B08980999FFF77FF9002813
:1037F000D6D1002E01D0F307D2D50136D0E7AA46A4
:103800001F2C11D8013F0A213000FEF7D1FE651CA4
:1038100030310CAB19550A213000FEF7C9FE092ED4
:103820000ED906002C00EBE755461F2C0CD87B1E4A
:10383000002F09D00CAA302111551F000134F4E7E4
:103840002B0055461C00F0E71F2C03D80CAB2E2292
:103850001A5501341F2C10D80A212800FEF780FECB
:10386000661C30310CAB19550A212800FEF778FE92
:10387000051E01D03400EDE734000323229A1340E3
:10388000012B1CD01F2C06D84346002B32D00CAB8A
:103890002D221A550134229B0393219B02930194FC
:1038A0000CAB00934B465A4607990698FFF7C8FAA7
:1038B00015B0F0BCBB46B246A946A046F0BD219B60
:1038C000002B13D04346002B02D10C3313420FD0F0
:1038D000219B013B2193190003E00CAB30221A55C8
:1038E00001348C42CED21F2CF7D9CBE72199F8E7CF
:1038F0002199F6E7229B5B0704D50CAB2B221A55C6
:103900000134C8E7229B1B07C5D50CAB20221A55F2
:103910000134C0E7FFFFEFFFFFFFEF7F65CDCD4133
:1039200065CDCDC1885D00108C5D00107C5D001000
:10393000845D0010E06100100000E03FF0B5DE465D
:1039400057464E464546E0B593B082468846934674
:103950001193002900D10DE300255646119B1878DC
:10396000002800D109E3252809D06C1C5B462A00F9
:103970004146B047119B013311932500EEE7013317
:103980001193002720E001231F43013211920124EB
:1039900018E002231F4301321192012412E0042394
:1039A0001F430132119201240CE008231F4301320E
:1039B0001192012406E010231F43013211920124C9
:1039C00000E00024002C09D0119A1378203BD9B2D2
:1039D0001029F6D88B00C849CB589F46119B1A78FE
:1039E0001300303BDBB2092B10D92A2A13D00B94D9
:1039F000119B1A782E2A1ED0119A1378683BD9B2DF
:103A0000122959D88B00BD49CB589F4611A8FFF702
:103A100005FA0B90ECE71C9B1A1D1C921B68002BEF
:103A200004DB0B93119B01331193E1E7022217434F
:103A30005B420B93F6E78022D20017435A1C119287
:103A40005A781300303BDBB2092B0BD92A2AD3D189
:103A50001C9B1A1D1C921C68002C08DB119B013357
:103A60001193C9E711A8FFF7D9F90400C4E70024AE
:103A7000F4E780235B003B43511C119151786C2982
:103A800001D01F0018E0C0239B001F430232119297
:103A900012E080233B43511C11915178682901D0D9
:103AA0001F0009E0C0231F430232119204E080236B
:103AB0005B001F4301321192119B1878672818D8B8
:103AC000252800D24CE20300253BDAB2422A00D975
:103AD00046E293008A4AD3589F4680239B001F43A7
:103AE00001321192E8E780235B001F4301321192FB
:103AF000E2E7782800D933E2692800D230E20200F8
:103B0000693AD2B2012393407E4A134211D11A0678
:103B100000D500E25B0500D422E21C9B1A1D1C921A
:103B20001B689A46002C00D0B2E101225242534653
:103B30008EE16F280ED006D858283DD0622804D1D7
:103B400002239C4608E0782839D010239F43063B87
:103B50009C4601E008239C46582833D0692803D0AE
:103B6000642801D00C2297437A0501D5012297439E
:103B700069282AD0642828D0BA0500D59FE0FA0524
:103B800000D5C1E07A0600D4D3E01C9A111D1C9127
:103B90001168FF220A4005970B9B04930394634628
:103BA00002930023019300925B462A0041463000B5
:103BB000FFF725FA050027E010239C46CCE71023E9
:103BC0009C46C9E720221743C8E7BA0520D4FA0566
:103BD00050D47A0666D51C9A111D1C911168FF22DB
:103BE0000A40D0171118414005970B9B049303948A
:103BF00063460293D20F019200915B462A00414630
:103C00003000FFF7FCF90500119B01331193A5E685
:103C10001C9A073207218A43110008311C91116850
:103C200053689946DB170C930D930C9A0D9B10006B
:103C300048400E904A4653400F930E980F990C9AA5
:103C40000D9B801A99410E900F9108970B9B07933B
:103C5000069463460493002305934B46DA0F0292C1
:103C6000009001915B462A0041463000FFF725FA9B
:103C70000500C9E71C9A111D1C911268D017111874
:103C8000414005970B9B0493039463460293D20F24
:103C9000019200915B462A0041463000FFF7AFF9E0
:103CA0000500B1E73A0605D51C9A111D1C910023A9
:103CB000D25E96E71C9A111D1C91126891E71C9A1E
:103CC000073207218A43110008311C9108970B9B8A
:103CD0000793069463460493002305930293536865
:103CE0001268009201935B462A0041463000FFF7BC
:103CF000E4F9050088E7C0464460001088600010C1
:103D0000D4600010419000001C9A111D1C91059771
:103D10000B9B04930394634602930023019313685F
:103D200000935B462A0041463000FFF768F9050022
:103D30006AE73A0606D51C9A111D1C9112681204F6
:103D4000120C28E71C9A111D1C91126823E74628C3
:103D500019D01C9B0733072293431A0008321C9288
:103D600004970B9A039202941A685B68009201937D
:103D70005B462A0041463000FFF736FC0500119BE8
:103D800001331193EAE520231F43E2E7672801D0BE
:103D9000472802D180231B011F43452801D0472813
:103DA00001D120231F431C9B0733072293431A0092
:103DB00008321C9204970B9A039202941A685B686B
:103DC000009201935B462A0041463000FFF7FCF960
:103DD0000500119B01331193C0E502231A003A40FC
:103DE00091463B421DD001241C9B1A1D1C926F1C46
:103DF00018785B462A004146B0474B46002B14D149
:103E0000119B013311933D00A8E5571C5B464146C9
:103E10002020B04723003A005C1C9D42F5D81500D5
:103E2000E2E701232A000B9DF6E73A00B1460B9E1C
:103E300006E0571C5B4641462020C8472C003A004C
:103E4000651CA642F5D817004E46D9E701330A0093
:103E50001978002902D0511E002AF7D152469B1A28
:103E60008022D200390011408946174202D0A34275
:103E700000D9230002221100394010913A4209D0A2
:103E80002A00250057469A4633004E46994621E0BF
:103E900022004CE62A004546A04606E0541C5B463C
:103EA00029002020B0473B0022005F1C0B9999425B
:103EB000F4D84446A8463B00250057469A463300AE
:103EC0004E46994606E01D000137541C5B464146AC
:103ED000C84722003878002804D0002EF4D06B1E8A
:103EE000002DF0D1150053464E46109A002A03D1FA
:103EF000119B0133119331E50B9F2A0006E0551CFD
:103F00005B4641462020B04723002A005C1C9F42AC
:103F1000F5D81500ECE721233B431C9A111D1C9199
:103F20001268059308230493039408330293002333
:103F3000019300925B462A0041463000FFF75FF88C
:103F40000500119B0133119308E56C1C5B462A00A8
:103F500041462520B047119B013311932500FDE414
:103F60006C1C5B462A004146B047119B01331193FC
:103F70002500F3E40A4B9A46EEE4B2465D450DD3C4
:103F80005B465A1E5B4641460020D047280013B0CE
:103F9000F0BCBB46B246A946A046F0BD2A00F1E7F8
:103FA0000D2E00100EB430B584B0010007AC08CC63
:103FB00003940122054D009452422800FFF7BEFCF5
:103FC00004B030BC08BC03B01847C046052E001032
:103FD00000B585B0029003910121044800931300BD
:103FE0004A4202A9FFF7AAFC05B000BD0F2E00103F
:103FF00000BEFDE703000A4A1268002A08D0084AFA
:104000001068C318074A9A4206D3054A13607047DE
:10401000034A05491160F2E701204042F7E7C04634
:10402000900B002000000420D80D002010B5FFF7F1
:10403000DFFF000030B583B00D001900002A0BD05F
:10404000074B084C019200932B000200200000F067
:104050005FF90120FFF7CCFF034B1A00F1E7C046E0
:10406000945D0010A45D00104456001010B5EFF3ED
:104070000583002B00D000BEFEF782F9034C01E05F
:1040800008CC9847024B9C42FAD310BD64550010EF
:104090006855001010B50300080011001B68984710
:1040A00010BD0000F8B507000D001600437D002B81
:1040B00002D0002400200CE003681100280098477B
:1040C0002DE03B7D10E03B68154802219847601CBD
:1040D0000134B44214DA002CF3DD2B19013B1B78B8
:1040E0000D3B5A425341DBB22A5D0A2AF0D1002B24
:1040F000EED1A042E7DA3B68211A28189847E2E798
:10410000B04203DA3B68311A28189847002E06DDC2
:10411000AD19013D2B780D3B5A4253413B75F8BD1B
:104120003062001070B505000368002B16D00C4BF0
:104130001C6805E0290004C92000FFF7B3FF2469CB
:10414000002C09D02368002BF9D0064B1B68002BEC
:10415000F0D0A342F3D1EDE700232B6070BDC04641
:10416000740B00208C0B002070B505000C000B6850
:10417000802B05D023685A1C2260E418257170BD7D
:104180000800FFF7CFFFF5E710B5FDF7F3FD074A8D
:10419000002312184B41002B03DB054801F0BCF94A
:1041A00010BD01225242034BF7E7C04640420F00C8
:1041B00040080020FFFFFF7F10B5024801F094F98E
:1041C00010BDC04640080020F0B5CE46474680B539
:1041D00083B006000D0090461C00FFF7D5FF814616
:1041E0006B1C05D0002C08D0184F194B1C6807E039
:1041F000300000F08FFF0500F4E7164FF5E7246963
:10420000002C17D02368002BF9D0134B1B68002B10
:1042100001D0A342F3D12A0031002000B847434621
:10422000002BECD06B46D91D0A230B700122200015
:10423000B847E4E74B46002B05D1280003B0C0BCCB
:10424000B946B046F0BDFFF7B7FFF6E7A54000104E
:10425000740B0020954000108C0B0020094A01E0EF
:1042600010331A001368002B08D08342F8D10029BC
:1042700007D1036913600023036102E0002900D025
:1042800010607047740B002010B5064B1C6801E0ED
:1042900098472469002C03D06368002BF8D1F8E715
:1042A00010BDC046740B002010B500F043F901208A
:1042B00010BD70B5050000F02DFF040001230122A0
:1042C00001002800FFF780FFFFF7DEFF200070BD30
:1042D00070B5A2B004000E00FFF756FF05000023E2
:1042E00001930A483300220001A9FFF771FE040080
:1042F00001A8FFF717FFFFF7C7FF002D02D120002D
:1043000022B070BDFFF758FFF9E7C04669410010C1
:104310000FB400B583B004A901C90191FFF7D8FF1C
:1043200003B008BC04B0184710B582B00C00144BA1
:10433000C3185A425341134A5B009B5E8B4204D020
:104340006B46DA1D1470002115E06B46DA1D0D2353
:10435000137000210029F3D183699B06FCD41378E4
:10436000036001310132F5E783699B06FCD41378C1
:104370000360013101320029F6D002B010BDC04601
:104380000080FCBFCC0D002082B000226B46D91DFE
:1043900006E08369DB06FCD403680B70013201314F
:1043A000002AF6D06B46D87902B0704770B5060087
:1043B0000D00002405E0315D034B1868FFF7B4FFE2
:1043C0000134AC42F7DB70BDD00D0020F8B506001B
:1043D0000D00002705E07C1CF719FFF7D5FF3870AA
:1043E0002700AF4204DA0D4A10688269D206F2D57E
:1043F0000B4A1268002A0AD0084A126850219163B9
:10440000506B18390140074B9C4662441160002FE5
:1044100001D03800F8BD033FFBE7C046D00D0020B7
:10442000400B00203410000010B5064B1B68002B19
:1044300006D0054A126800219163044A1068984723
:1044400010BDC046400B0020D00D0020440B0020C2
:10445000024B1A6893691B07FCD47047D00D0020EB
:1044600070B51D4B1B681D4A934207D014240028C9
:104470001ED01B4B1B68002B02D070BD1524F6E725
:10448000174B1860174B196017492000FCF76EFD99
:1044900001212000FCF748FD0F4B1B6850229A6356
:1044A000596B183A0A4011498C4663441A60E4E794
:1044B0000B4A1268002AE0D000259D6300212000ED
:1044C000FCF732FD08492000FCF786FE044B1D6016
:1044D000044B1D60D1E7C046D00D00200080034092
:1044E000400B0020440B0020294400103410000031
:1044F00070B50D001C000D4B1860002A0BDA002C63
:104500000EDA0A4B18682900FDF798FD08480121CA
:10451000FFF7A4FE70BD02211000FCF761FBEEE77F
:1045200002212000FCF75CFBEBE7C046D00D002029
:10453000D002002010B5074B1B78074B1B78074BA8
:104540001B78E1210123002249020548FFF7D0FF33
:1045500010BDC04674620010706200106C620010E2
:1045600000400340030010B50A0003490868190021
:1045700000F004F810BDC046F806002070B50B0C22
:104580000024150C002B28D1002D3CD18BB291B208
:10459000594300F047F8051E33D00300083B5A6822
:1045A00003239A43043A242A12D80300132A0AD96F
:1045B0000460446008331B2A05D98460C460242A3F
:1045C0002AD00300103300221A605A609A6002E079
:1045D0000021FEF70BFC280070BD002D16D1151C24
:1045E00089B292B24A43ADB29BB26B43110C5B18D5
:1045F000190C0BD1190492B2114300F013F8051EE7
:10460000CBD10025E7E72B1C0D1CE9E700F06AFD84
:104610000C2300250360DEE70300046118334461C6
:10462000D1E7C046F0B54E464546DE465746E0B5B2
:104630000D000B35060085B0162D27D8102900D99E
:10464000DAE000F0D1FA102518230221C74FFB1839
:104650001A005C68083A944200D146E1032263687C
:10466000A1689343E268CA6091600121E3185A6827
:1046700030000A435A6000F0BFFA2000083005B04D
:10468000F0BCBB46B246A946A046F0BD07239D43F9
:1046900000D5B1E0A94200D9AEE000F0A5FAFC23B4
:1046A0005B009D4200D29AE1690A00D1A8E004298A
:1046B00000D94FE138239846A90988443931CB0005
:1046C000082252429446A94FFB189C446346DC687A
:1046D000A44514D0032399460B0061469C4607E08D
:1046E000E068002A00DBFAE0814200D1FBE0040030
:1046F0004A46636893435A1B0F2AF1DD41463A004C
:104700003C690832944200D1D8E0032063688343B7
:10471000581B0F2800DD66E13A617A610028A4DAAF
:104720007A68904680229200934200D3E3E0DA0850
:10473000580901238340404618438046D300DB19C3
:104740009A687860E360A2609C60D46001208B105E
:10475000984040455CD8434603420AD1032399431D
:10476000434640000431034203D140000431034278
:10477000FBD00323B3469C460E00B8460190F000E0
:1047800040440100B246CB680BE064465A681F0003
:10479000A243DB68541B0F2C00DDF3E0002C00DB90
:1047A0000DE19942F1D101239946CA44534608319B
:1047B0009B07E8D1032205E003680838013E8342E5
:1047C00000D00AE23242F7D14346019A5B68934334
:1047D00042465360019A520001929A4216D8002A2A
:1047E00006D113E004229146019ACA445200019274
:1047F0001342F7D05646C2E70C23002033603EE751
:1048000080233F22402190469B0059E75E46474661
:104810000322BC68636893439946AB4202D35B1B97
:104820000F2B4EDC23004B440293514B08201B6896
:1048300010335B19019300F05FFC4E4903900B6845
:104840008B46013306D08446019B4242013B6344C0
:10485000134001933000019900F032FC03008046C0
:10486000013300D1DDE0029B834200D9D7E0019AF9
:10487000414B944619689A466144039A1960029B19
:104880000800013A434500D0EAE04346134200D015
:10489000E6E0BB68984663464B441A0001231A437E
:1048A00043465A60354B1868884200D21960344B31
:1048B0001868884200D219604446B4E07B68984684
:1048C00044E7012229001343114365196160300058
:1048D000BD606B6000F090F920000830CFE6A26860
:1048E000D0608260C1E6614609E7DC680231A3421C
:1048F00000D104E7B2E65A0A042A00D888E0142A54
:1049000000D90FE110005B3082465C32D2000820F3
:1049100040428446BA189444624692680B308146FD
:10492000944500D1E5E00800A2466146844602E0D5
:104930009268914204D04C465068A0439842F7D800
:10494000D368614654469C466346A260E3609C601F
:10495000D460FBE6142973D9542900D9EBE06E2307
:104960009846290B88446F31CB00A9E6F00200205D
:10497000FC090020E8020020CC090020F4090020F6
:10498000F8090020BA4601205146844649190543DA
:1049900050464560856847466046EB605E469D60D0
:1049A000534639617961204308374860CF60300051
:1049B0008F609C5000F020F9504608305FE6BA4600
:1049C00001205E465244516801435160BA6830008C
:1049D000D3609A6000F010F9380008304FE62B00E1
:1049E000E908083332E66119884601218C460D43F7
:1049F0004146656039617961CA608A6062460243F6
:104A00004A60E050300000F0F7F82000083036E649
:104A10009A091000393238308246D20077E7BC421A
:104A200014D0BC68626803239A43531BAA4202D382
:104A30000F2B00DD45E7300000F0DEF800201EE619
:104A40005B23984688445C31CB0039E6644B9A4638
:104A50001868019B9C46534660441860039B5A1E8D
:104A60005B461B68013371D0434602995B1A51467D
:104A70001B180B600723414640461940029118421B
:104A800040D00398013384465B1A0199984441440D
:104A90000191634411405B1A1A40110030009346A3
:104AA00000F00EFB431C78D04346C01A03005B4461
:104AB0000193534619680120594419604346019AED
:104AC000BB6002435A60BC4200D1EBE64B460F2B61
:104AD00040D907220C3B93436268024005201A43E9
:104AE0006260E218506090600F2B4BD843465A68C2
:104AF000D8E6534698100123834040461843804629
:104B0000786021E7019B039943441340CB1A1A4074
:104B100011003000934600F0D3FA431CC4D10023A7
:104B20009B46C6E7542A18D81A0B10006F326E3015
:104B30008246D200EBE6AA235B00994218D8DD3BFF
:104B40009846E90B88447831CB00B9E55B4641468D
:104B500019608FE7434658606DE7AA204000824203
:104B600026D8DA0B1000783277308246D200CEE6B3
:104B70001C4B994226D87C239846A90C88447D3149
:104B8000CB009DE521003000083100F04BFB53467F
:104B90001968BB6898465A6884E6019A029B944655
:104BA0004246083B63449B1A019300239B4680E7DF
:104BB0000C4882420CD89A0C10007D327C30824620
:104BC000D200A4E6FE237E227F2190469B0077E55B
:104BD000FE227E209200824699E643465B68F9E514
:104BE000CC0900205405000010B5024800F080FAFE
:104BF00010BDC046C809002010B5024800F07AFA7E
:104C000010BDC046C809002030B5032A1AD90B00D0
:104C100003439B0711D0551E002303E05A1C9D42FD
:104C200013D01300C25CCC5CA242F7D0101B0DE085
:104C3000043A04300431032A04D904680B689C4206
:104C4000F6D0E8E7551E002AE6D1002030BDC04668
:104C5000F0B5CE4647460300944680B5012959D9A0
:104C6000012201209046012500260124404206E051
:104C7000221A9046260001257419A1420DD91F1849
:104C80001A5D7F5DBA42F3D336D001250122300090
:104C9000013674199046A142F1D844466246146028
:104CA00001229146023A012500269046012407E0A0
:104CB0004246A21A9146260001257419A1420ED936
:104CC0004746DF191A5D7F5DBA42F1D818D0012539
:104CD0000122B046013674199146A142F0D84346EC
:104CE00001300133834203D3624649461800116004
:104CF000C0BCB946B046F0BD454505D00135BBE75F
:104D00004D4504D00135D8E776190125B4E7761969
:104D10000125D2E7012399460023E5E7F0B5DE46F9
:104D2000574645464E46E0B5844C8346A54414009C
:104D30008A4605AA190020001D00FFF789FFFFAA77
:104D4000019006AB1C3220C39342FCD1002D0FD042
:104D50002300A446681E6619201808241A7804AF98
:104D6000C11A92003F190133B9509E42F5D16446F1
:104D7000059B2000019AE1189846FFF745FF00289F
:104D800000D07AE0002399465346591B80231B012B
:104D90002B4303932B006F1E00264D4608009946B7
:104DA000029408E0002D04D0984502D94B464246B3
:104DB0009B1A0025F618B04224D35B4608249919A3
:104DC000CB5D04AA9B001219D358002BEAD1019A9B
:104DD0002B00954200D213009F422AD98446029CA0
:104DE000080002E001339F4220D0E15CC25C9142A6
:104DF000F8D00100029460469F421AD9019AB61A6F
:104E00000136D6E758460399504400F057FB8244D8
:104E100053464A46981AB042CFD20020484B9D4490
:104E2000F0BCBB46B246A946A046F0BD01006046B4
:104E30000294019A531E95427DD28446029C08003A
:104E400003E05A1E9D4210D01300E15CC25C914207
:104E5000F7D0010060460294013301359D420AD823
:104E60004B46424646449D1AA5E70135010002948F
:104E700060469D42F4D90800D0E7019AAB1A9342EC
:104E800057D30133039305935346591B80231B01CA
:104E90002B4399466B1E002608001F000294B04267
:104EA0000CD35B4608249919CB5D04AA9B00121908
:104EB000D358002B0DD0F618B042F2D258464946CE
:104EC000504400F0FBFA82445346581BB042E8D2EB
:104ED000A3E7019A1300BA4217D28446029C080045
:104EE00002E00133BB420DD0E15CC25C9142F8D0DC
:104EF0000100029460469F4207D9019AB61A013612
:104F0000F618D9E7010060460294019B013BB2D339
:104F10008446029C080002E0013B00D27EE7E15C8F
:104F2000C25C9142F8D0039B60469C460294664462
:104F3000B5E71300A5E713008FE7C046E4FBFFFFCA
:104F40001C040000F0B5CE46474680B50E00097837
:104F50000500040091B0002958D07278002A00D1D1
:104F600078E0B078002857D013020B4307041F43A2
:104F7000F3789C461B063B436746002F00D180E038
:104F80003279002A6AD0300000F0C4F8802189000C
:104F900007000143280000F091FA87424AD8FE2F0B
:104FA00000D985E0C01B804640226846791CA84491
:104FB000FDF71CFF002F0FD0BA1994463F22330093
:104FC0009146F8B2301849466C461A780A40C11A20
:104FD0000133A1549C45F6D12C003F256A46013C83
:104FE000E35D2B40D35CE418A04503D224E04C449D
:104FF000A04521D36A46E35D31002B40D35C2000FD
:105000003A009946FFF700FE0028F0D1200011B0C9
:10501000C0BCB946B046F0BD0904114300232A784C
:1050200006E02C001B04013513432A7899423DD039
:10503000002AF6D10024E9E74346D819DB5D002BAE
:10504000F8D08021090100F039FA8044A045C5D28A
:105050000024DBE700F0D0F90400D7E72A78002A23
:10506000E8D019BA002301E08B4208D02C001B02C3
:10507000013513432A78002AF6D18B42DAD1033C5A
:10508000C4E71204090611432A7800020143002AEA
:10509000D0D0002301E0002ACCD02C0013430135EE
:1050A0001B022A789942F6D1023CAFE7013CADE7FA
:1050B00001003B0032002800FFF730FE0400A5E7A6
:1050C000002370B5064C050008002360FEF792FF30
:1050D000431C00D070BD2368002BFBD02B60F9E788
:1050E000780B0020014B18687047C046F806002076
:1050F0007047C0467047C046802310B55B01082842
:1051000001D1180010BDFFF7EDFF16230360173B18
:10511000F7E7C04610B583070AD00300032102E079
:1051200001330B4205D01A78002AF9D1181A10BDA4
:10513000030019680C4A0D4C8A188A4322420FD189
:105140005968094A04338A188A43224208D15968A7
:10515000054A04338A188A432242F1D000E0013321
:105160001A78002AFBD1E1E7FFFEFEFE80808080F6
:10517000F0B5C646060000B508200D00FFF7BCFFDD
:1051800004003000FFF730FD234B210098469B6858
:105190005F6803239F4338001138401B0019FDF757
:1051A00007FA451E6543AC4208DC00213000FFF7DA
:1051B00087FF43469B68DB19984206D03000FFF713
:1051C0001BFD002080BCB846F0BD30006942FFF7EF
:1051D00077FF01300ED0012243467F1B9B681743A7
:1051E0000E4A5F60136830005B1B1360FFF704FD1D
:1051F0000120E7E700213000FFF762FF43469A688D
:10520000831A0F2BDADD064C04492468001B086062
:1052100001210B435360D1E7F0020020CC090020AC
:10522000E8020020F8B5CE46474605000C0080B5E0
:10523000002957D0FFF7D8FC012321009C460839EC
:1052400048686246030003249343CF187A68654E8A
:10525000A243B468BC4200D170E0BC18A1466446C9
:105260007A60044221D10868091A1B1888688046B0
:10527000484640682040340008348146A04551D05B
:105280004046CC68C460A0604846002811D19B18F5
:105290005548BA68824200D17FE0F868D0608260E9
:1052A00001221A434A60CB5007E04846406820423A
:1052B000EDD062461A434A603B60802292009342DE
:1052C00014D2DA08580901238340706803437360DD
:1052D000D3009B199A68CB608A609960D1602800DE
:1052E000FFF78AFCC0BCB946B046F8BD5C0A042C86
:1052F0003DD89C09200039343830E4003419226844
:10530000083C0327944203D140E09268944203D0C2
:105310005068B8439842F8D8D468CC608A60A160DD
:10532000D160DCE7002858D1B868D218FB68C360A8
:105330009860634613434B608A50D0E79A186346DF
:10534000034206D10B68C91A8868D218CB68C360BB
:105350009860012313434B60244BB1601B68934258
:10536000BDD8234B28001968FFF702FFB7E7142CBC
:1053700007D9542C1AD81C0B20006F346E30E4006F
:10538000BCE720005C345B30E400B7E70123801009
:105390008340706803437360BFE7D1609160CA6067
:1053A0008A6001221A434A60CB5098E7AA22520031
:1053B000944205D8DC0B200078347730E4009DE778
:1053C0000C4A944205D89C0C20007D347C30E400CB
:1053D00094E7FE247E20A40090E762461A434A60C8
:1053E0003B607CE7F0020020F8020020EC02002085
:1053F000FC090020540500000323CAB2F0B50340A5
:10540000002A35D00324002B2DD1FF230B401D0291
:10541000ED182B04ED182C000168264E4C408B191A
:105420008B43A119A143244E0B43334211D1416850
:10543000204F0C00CB196C408B43E119A1430B4367
:1054400004303342F3D00378002B05D09A4204D0C5
:1054500001300378002BF9D10020F0BD9342FCD03D
:1054600001302042D1D00378002BF7D10020F4E79F
:10547000002B08D0032202E00130104203D0037851
:10548000002BF9D1E9E702680A4B0B49D318934383
:105490000B4206D14268074B0430D31893430B42AA
:1054A000F8D00378002BD8D043780130002BFBD103
:1054B000D3E7C046FFFEFEFE8080808010B503006B
:1054C0004418002903D109E001339C4204D01A7822
:1054D000002AF9D1181A10BD201AFCE70020FAE7BB
:1054E000F8B5C0460000000001B40248844601BC83
:1054F000604700BFCD01002001B40248844601BCD2
:10550000604700BF1902002001B40248844601BC74
:10551000604700BF1902002001B40248844601BC64
:10552000604700BF9901002091230010BD230010A7
:1055300051250010DD2D0010D92B00101D2D00105D
:1055400085240010D9230010F92300100D24001029
:10555000A114001015240010C51C00107D2300109C
:08556000210E0010B102001041
:10556800626F6F740000000063616C69627261743D
:10557800656400006E6F742064697370656E73658E
:105588006400000070696C6C2064697370656E73E8
:105598006564000064697370656E73657220656D7B
:1055A800707479006275666665723A2025730A0020
:1055B8002B4A4F494E3A204A6F696E206661696CE2
:1055C800656400004F4B000041540D0A00000000C4
:1055D8002B4D4F44453A000041542B4D4F44453D17
:1055E8004C574F5441410D0A000000002B4B4559C0
:1055F8003A00000041542B4B45593D4150504B4512
:10560800592C64346339323266323962333933386B
:1056180033653165613931323835383532373031B3
:1056280030630D0A000000002B434C4153533A00ED
:1056380041542B434C4153533D410D0A0000000097
:105648002B504F52543A000041542B504F52543D66
:10565800380D0A002B44523A0000000041542B44F4
:10566800523D350D0A0000002B4A4F494E3A204E54
:105678006574776F726B206A6F696E6564000000ED
:1056880041542B4A4F494E0D0A00000041542B4DFE
:1056980053473D222573220D0A00000021656E61E3
:1056A800626C6564207C7C206972715F6861735FDD
:1056B80068616E646C657228494F5F4952515F4258
:1056C800414E4B3029000000433A2F7069636F2F19
:1056D8007069636F2D73646B2F7372632F727032EE
:1056E8005F636F6D6D6F6E2F68617264776172654D
:1056F8005F6770696F2F6770696F2E630000000025
:105708000A2A2A2A2050414E4943202A2A2A0A00D6
:1057180030783163203D3D20282A696E7374293E14
:105728003E31317500000000433A2F7069636F2FD6
:105738007069636F2D73646B2F7372632F7270328D
:105748005F636F6D6D6F6E2F6861726477617265EC
:105758005F6972712F6972712E63000064656C74E1
:1057680061203E3D202D32303438202626206465C5
:105778006C7461203C3D20323034362026262021AE
:105788002864656C7461202620312900212864650D
:105798006C7461203E3E2031317529006375727248
:1057A800656E74203D3D205F5F756E68616E646C48
:1057B80065645F757365725F697271207C7C2063B4
:1057C800757272656E74203D3D2068616E646C650B
:1057D800720000006972715F68616E646C65725F67
:1057E800636861696E5F667265655F736C6F745F2D
:1057F80068656164203E3D20300000007674616277
:105808006C655F68616E646C6572203D3D205F5F0A
:10581800756E68616E646C65645F757365725F69E7
:1058280072710000212828282875696E74707472B6
:105838005F742972656D6F76655F7468756D625FF8
:1058480062697428767461626C655F68616E646C05
:1058580065722929202D20282875696E7470747244
:105868005F74296972715F68616E646C65725F63E9
:105878006861696E5F736C6F7473292920252073C2
:10588800697A656F662873747275637420697271BA
:105898005F68616E646C65725F636861696E5F738F
:1058A8006C6F74292900000021657863657074693C
:1058B8006F6E207C7C20657863657074696F6E20DC
:1058C8003D3D206E756D202B20565441424C455F5E
:1058D80046495253545F49525100000066616C7347
:1058E8006500000069735F7368617265645F69725F
:1058F800715F7261775F68616E646C657228736C42
:105908006F745F68616E646C6572290065786365A1
:105918007074696F6E000000666F756E6400000039
:1059280031203D3D202875696E747074725F74294A
:105938006C2D3E7370696E5F6C6F636B00000000C6
:10594800433A2F7069636F2F7069636F2D73646BAF
:105958002F7372632F636F6D6D6F6E2F7069636F36
:105968005F73796E632F6D757465782E6300000020
:10597800746F74616C0000006D74782D3E636F72F3
:10598800652E7370696E5F6C6F636B006C6F636B11
:105998005F69735F6F776E65725F69645F76616C6C
:1059A8006964286D74782D3E6F776E6572290000E2
:1059B8006D74782D3E656E7465725F636F756E7475
:1059C80000000000706F6F6C2D3E74696D65725F2A
:1059D800616C61726D5F6E756D203D3D2074696DFF
:1059E80065725F616C61726D5F6E756D00000000BD
:1059F800433A2F7069636F2F7069636F2D73646BFF
:105A08002F7372632F636F6D6D6F6E2F7069636F85
:105A18005F74696D652F74696D652E630000000001
:105A280064656661756C745F616C61726D5F706FDF
:105A38006F6C5F696E697469616C697A656428293D
:105A480000000000417474656D7074656420746FA3
:105A580020736C65657020696E73696465206F6674
:105A680020616E20657863657074696F6E20686167
:105A78006E646C65723B2075736520627573795F1F
:105A88007761697420696620796F75206D75737404
:105A980000000000486172647761726520616C6182
:105AA800726D20256420616C726561647920636C75
:105AB80061696D6564000000696E646578203C3D2D
:105AC80020712D3E656C656D656E745F636F756ED4
